:020000040800F2
:1000000000C00020414400080544000807440008DF
:10001000094400080B4400080D44000800000000DB
:100020000000000000000000000000000F44000875
:1000300011440008000000001344000815440008A3
:10004000894400088944000889440008894400085C
:10005000894400088944000889440008894400084C
:10006000894400088944000889440008313C00089C
:10007000894400088944000889440008894400082C
:1000800021440008314400088944000889440008DC
:10009000894400088944000889440008894400080C
:1000A00089440008894400088944000889440008FC
:1000B00089440008894400088944000889440008EC
:1000C00089440008894400088944000889440008DC
:1000D00089440008894400088944000889440008CC
:1000E00089440008894400088944000889440008BC
:1000F00089440008894400088944000889440008AC
:10010000894400088944000889440008894400089B
:10011000894400088944000889440008894400088B
:10012000894400088944000889440008894400087B
:1001300000000000000000000000000000000000BF
:1001400000000000000000000000000000000000AF
:10015000000000000000000000000000000000009F
:10016000000000000000000000000000000000008F
:10017000000000000000000000000000000000007F
:10018000000000000000000000000000000000006F
:10019000000000000000000000000000000000005F
:1001A000000000000000000000000000000000004F
:1001B000000000000000000000000000000000003F
:1001C000000000000000000000000000000000002F
:1001D000000000000000000000000000000000001F
:0401E0005FF8E0F1F3
:1001E80010B5054C237833B9044B13B10448AFF369
:1001F80000800123237010BD88000020000000004B
:10020800244D000808B5034B1BB103490348AFF35D
:10021800008008BD000000008C000020244D00086C
:10022800034613F8012B002AFBD1181A013870472E
:1002380081F0004102E000BF83F0004330B54FEA8F
:1002480041044FEA430594EA050F08BF90EA020FFC
:100258001FBF54EA000C55EA020C7FEA645C7FEA8F
:10026800655C00F0E2804FEA5454D4EB5555B8BFB2
:100278006D420CDD2C4480EA020281EA030382EA23
:10028800000083EA010180EA020281EA0303362DB5
:1002980088BF30BD11F0004F4FEA01314FF4801C88
:1002A8004CEA113102D0404261EB410113F0004F9A
:1002B8004FEA03334CEA133302D0524263EB430351
:1002C80094EA050F00F0A780A4F10104D5F1200EEF
:1002D8000DDB02FA0EFC22FA05F2801841F100014A
:1002E80003FA0EF2801843FA05F359410EE0A5F11E
:1002F80020050EF1200E012A03FA0EFC28BF4CF04F
:10030800020C43FA05F3C01851EBE37101F0004504
:1003180007D54FF0000EDCF1000C7EEB00006EEB11
:100328000101B1F5801F1BD3B1F5001F0CD349089B
:100338005FEA30004FEA3C0C04F101044FEA4452F2
:1003480012F5800F80F09A80BCF1004F08BF5FEA79
:10035800500C50F1000041EB045141EA050130BD59
:100368005FEA4C0C404141EB010111F4801FA4F1FC
:100378000104E9D191F0000F04BF01460020B1FA51
:1003880081F308BF2033A3F10B03B3F120020CDA89
:100398000C3208DD02F1140CC2F10C0201FA0CF067
:1003A80021FA02F10CE002F11402D8BFC2F1200CCC
:1003B80001FA02F120FA0CFCDCBF41EA0C01904082
:1003C800E41AA2BF01EB0451294330BD6FEA0404CB
:1003D8001F3C1CDA0C340EDC04F11404C4F12002B6
:1003E80020FA04F001FA02F340EA030021FA04F3C8
:1003F80045EA030130BDC4F10C04C4F1200220FA1F
:1004080002F001FA04F340EA0300294630BD21FA5C
:1004180004F0294630BD94F0000F83F4801306BF22
:1004280081F480110134013D4EE77FEA645C18BF16
:100438007FEA655C29D094EA050F08BF90EA020FAD
:1004480005D054EA000C04BF1946104630BD91EAA5
:10045800030F1EBF0021002030BD5FEA545C05D1A8
:100468004000494128BF41F0004130BD14F58004E7
:100478003CBF01F5801130BD01F0004545F0FE415B
:1004880041F470014FF0000030BD7FEA645C1ABF90
:10049800194610467FEA655C1CBF0B46024650EAC7
:1004A800013406BF52EA033591EA030F41F40021F3
:1004B80030BD00BF90F0000F04BF0021704730B579
:1004C8004FF4806404F132044FF000054FF000014E
:1004D80050E700BF90F0000F04BF0021704730B50F
:1004E8004FF4806404F1320410F0004548BF4042E4
:1004F8004FF000013EE700BF42004FEAE2014FEA39
:1005080031014FEA02701FBF12F07F4393F07F4F13
:1005180081F06051704732F07F4208BF704793F016
:100528007F4F04BF41F40021704730B54FF4607429
:1005380001F0004521F000411CE700BF50EA01022C
:1005480008BF704730B54FF000050AE050EA0102D5
:1005580008BF704730B511F0004502D5404261EB45
:1005680041014FF4806404F132045FEA915C3FF486
:10057800D8AE4FF003025FEADC0C18BF03325FEA23
:10058800DC0C18BF033202EBDC02C2F1200300FAD4
:1005980003FC20FA02F001FA03FE40EA0E0021FAF9
:1005A80002F11444BDE600BF70B54FF0FF0C4CF4E7
:1005B800E06C1CEA11541DBF1CEA135594EA0C0F99
:1005C80095EA0C0F00F0DEF82C4481EA030621EAD4
:1005D8004C5123EA4C5350EA013518BF52EA03350F
:1005E80041F4801143F4801338D0A0FB02CE4FF0C1
:1005F8000005E1FB02E506F00042E0FB03E54FF0F1
:100608000006E1FB03569CF0000F18BF4EF0010EE8
:10061800A4F1FF04B6F5007F64F5407404D25FEAE4
:100628004E0E6D4146EB060642EAC62141EA555197
:100638004FEAC52040EA5E504FEACE2EB4F1FD0CD9
:1006480088BFBCF5E06F1ED8BEF1004F08BF5FEA57
:10065800500E50F1000041EB045170BD06F0004609
:1006680046EA010140EA020081EA0301B4EB5C04B6
:10067800C2BFD4EB0C0541EA045170BD41F48011AE
:100688004FF0000E013C00F3AB8014F1360FDEBFD3
:10069800002001F0004170BDC4F10004203C35DAAF
:1006A8000C341BDC04F11404C4F1200500FA05F332
:1006B80020FA04F001FA05F240EA020001F00042D3
:1006C80021F0004110EBD37021FA04F642EB060149
:1006D8005EEA430E08BF20EAD37070BDC4F10C0473
:1006E800C4F1200500FA04F320FA05F001FA04F237
:1006F80040EA020001F0004110EBD37041F1000123
:100708005EEA430E08BF20EAD37070BDC4F120052D
:1007180000FA05F24EEA020E20FA04F301FA05F295
:1007280043EA020321FA04F001F0004121FA04F23D
:1007380020EA020000EBD3705EEA430E08BF20EA0D
:10074800D37070BD94F0000F0FD101F00046400047
:1007580041EB010111F4801F08BF013CF7D041EAC9
:10076800060195F0000F18BF704703F000465200CD
:1007780043EB030313F4801F08BF013DF7D043EA9E
:100788000603704794EA0C0F0CEA135518BF95EA54
:100798000C0F0CD050EA410618BF52EA4306D1D1DB
:1007A80081EA030101F000414FF0000070BD50EAFA
:1007B800410606BF1046194652EA430619D094EA84
:1007C8000C0F02D150EA013613D195EA0C0F05D16E
:1007D80052EA03361CBF104619460AD181EA0301C2
:1007E80001F0004141F0FE4141F470014FF000007A
:1007F80070BD41F0FE4141F4780170BD70B54FF015
:10080800FF0C4CF4E06C1CEA11541DBF1CEA135594
:1008180094EA0C0F95EA0C0F00F0A7F8A4EB050476
:1008280081EA030E52EA03354FEA013100F088806D
:100838004FEA03334FF0805545EA131343EA126336
:100848004FEA022245EA111545EA10654FEA0026EB
:100858000EF000419D4208BF964244F1FD0404F5A4
:10086800407402D25B084FEA3202B61A65EB030500
:100878005B084FEA32024FF480104FF4002CB6EBBD
:10088800020E75EB030E22BFB61A754640EA0C003D
:100898005B084FEA3202B6EB020E75EB030E22BF7D
:1008A800B61A754640EA5C005B084FEA3202B6EBBE
:1008B800020E75EB030E22BFB61A754640EA9C007D
:1008C8005B084FEA3202B6EB020E75EB030E22BF4D
:1008D800B61A754640EADC0055EA060E18D04FEA0B
:1008E800051545EA16754FEA06164FEAC30343EAAB
:1008F80052734FEAC2025FEA1C1CC0D111F4801F78
:100908000BD141EA00014FF000004FF0004CB6E770
:1009180011F4801F04BF01430020B4F1FD0C88BF0F
:10092800BCF5E06F3FF6AFAEB5EB030C04BFB6EB1A
:10093800020C5FEA500C50F1000041EB045170BD0D
:100948000EF0004E4EEA113114EB5C04C2BFD4EB3A
:100958000C0541EA045170BD41F480114FF0000EBE
:10096800013C90E645EA060E8DE60CEA135594EA3A
:100978000C0F08BF95EA0C0F3FF43BAF94EA0C0F3D
:100988000AD150EA01347FF434AF95EA0C0F7FF4B2
:1009980025AF104619462CE795EA0C0F06D152EA06
:1009A80003353FF4FDAE1046194622E750EA4106EA
:1009B80018BF52EA43067FF4C5AE50EA41047FF4FB
:1009C8000DAF52EA43057FF4EBAE12E74FF0FF3C60
:1009D80006E000BF4FF0010C02E000BF4FF0010C31
:1009E8004DF804CD4FEA410C7FEA6C5C4FEA430CAA
:1009F80018BF7FEA6C5C1BD001B050EA410C0CBFF9
:100A080052EA430C91EA030F02BF90EA020F00205A
:100A1800704710F1000F91EA030F58BF994208BFC1
:100A280090422CBFD8176FEAE37040F0010070477E
:100A38004FEA410C7FEA6C5C02D150EA013C07D1D5
:100A48004FEA430C7FEA6C5CD6D152EA033CD3D020
:100A58005DF8040B704700BF8446104662468C461A
:100A68001946634600E000BF01B5FFF7B7FF00284D
:100A780048BF10F1000F01BD4DF808EDFFF7F4FF76
:100A88000CBF012000205DF808FB00BF4DF808ED01
:100A9800FFF7EAFF34BF012000205DF808FB00BF24
:100AA8004DF808EDFFF7E0FF94BF012000205DF846
:100AB80008FB00BF4DF808EDFFF7CEFF94BF0120FB
:100AC80000205DF808FB00BF4DF808EDFFF7C4FFF4
:100AD80034BF012000205DF808FB00BF4FEA410247
:100AE80012F5001215D211D56FF47873B3EB625278
:100AF80012D94FEAC12343F0004343EA505311F09F
:100B0800004F23FA02F018BF404270474FF0000030
:100B1800704750EA013005D111F0004008BF6FF06E
:100B2800004070474FF00000704700BF4FEA410295
:100B3800B2F1E04324BFB3F5001CDCF1FE5C0DD933
:100B480001F0004C4FEAC0024CEA5070B2F1004F7D
:100B580040EB830008BF20F00100704711F0804F80
:100B680021D113F13872BCBF01F00040704741F445
:100B780080114FEA5252C2F11802C2F1200C10FA49
:100B88000CF320FA02F018BF40F001004FEAC1232D
:100B98004FEAD32303FA0CFC40EA0C0023FA02F3D1
:100BA8004FEA4303CCE77FEA625307D150EA0133A7
:100BB8001EBF4FF0FE4040F44000704701F0004077
:100BC80040F0FE4040F40000704700BF80F0004055
:100BD80002E000BF81F0004142001FBF5FEA41030D
:100BE80092EA030F7FEA226C7FEA236C6AD04FEA0D
:100BF8001262D2EB1363C1BFD21841404840414052
:100C0800B8BF5B42192B88BF704710F0004F40F403
:100C1800000020F07F4018BF404211F0004F41F41F
:100C2800000121F07F4118BF494292EA030F3FD0EB
:100C3800A2F1010241FA03FC10EB0C00C3F12003FE
:100C480001FA03F100F0004302D5494260EB40008D
:100C5800B0F5000F13D3B0F1807F06D340084FEAF8
:100C6800310102F10102FE2A51D2B1F1004F40EBED
:100C7800C25008BF20F0010040EA03007047490055
:100C880040EB000010F4000FA2F10102EDD1B0FA20
:100C980080FCACF1080CB2EB0C0200FA0CF0AABF15
:100CA80000EBC25052421843BCBFD04018437047B3
:100CB80092F0000F81F4000106BF80F400000132B9
:100CC800013BB5E74FEA41037FEA226C18BF7FEA90
:100CD800236C21D092EA030F04D092F0000F08BFD2
:100CE8000846704790EA010F1CBF0020704712F0B9
:100CF8007F4F04D1400028BF40F00040704712F1F8
:100D080000723CBF00F50000704700F0004343F05C
:100D1800FE4040F4000070477FEA226216BF084692
:100D28007FEA23630146420206BF5FEA412390EA55
:100D3800010F40F4800070474FF0000304E000BF4B
:100D480010F0004348BF40425FEA000C08BF7047FC
:100D580043F0964301464FF000001CE050EA0102C0
:100D680008BF70474FF000030AE000BF50EA0102D5
:100D780008BF704711F0004302D5404261EB4101C2
:100D88005FEA010C02BF84460146002043F0B643E7
:100D980008BFA3F18053A3F50003BCFA8CF2083A0C
:100DA800A3EBC25310DB01FA02FC634400FA02FC15
:100DB800C2F12002BCF1004F20FA02F243EB02001C
:100DC80008BF20F00100704702F1200201FA02FC7E
:100DD800C2F1200250EA4C0021FA02F243EB020071
:100DE80008BF20EADC7070474FF0FF0C1CEAD052B5
:100DF8001EBF1CEAD15392EA0C0F93EA0C0F6FD076
:100E08001A4480EA010C400218BF5FEA41211ED053
:100E18004FF0006343EA501043EA5111A0FB01313F
:100E28000CF00040B1F5000F3EBF490041EAD37114
:100E38005B0040EA010062F17F02FD2A1DD8B3F190
:100E4800004F40EBC25008BF20F00100704790F0FF
:100E5800000F0CF0004C08BF49024CEA502040EA51
:100E680051207F3AC2BFD2F1FF0340EAC250704717
:100E780040F400004FF00003013A5DDC12F1190F55
:100E8800DCBF00F000407047C2F10002410021FAC7
:100E980002F1C2F1200200FA02FC5FEA310040F1DF
:100EA800000053EA4C0308BF20EADC70704792F058
:100EB800000F00F0004C02BF400010F4000F013A90
:100EC800F9D040EA0C0093F0000F01F0004C02BF8B
:100ED800490011F4000F013BF9D041EA0C018FE7FA
:100EE8000CEAD15392EA0C0F18BF93EA0C0F0AD000
:100EF80030F0004C18BF31F0004CD8D180EA010026
:100F080000F00040704790F0000F17BF90F0004FBE
:100F1800084691F0000F91F0004F14D092EA0C0FA0
:100F280001D142020FD193EA0C0F03D14B0218BF33
:100F3800084608D180EA010000F0004040F0FE4079
:100F480040F40000704740F0FE4040F44000704715
:100F58004FF0FF0C1CEAD0521EBF1CEAD15392EA94
:100F68000C0F93EA0C0F69D0A2EB030280EA010C84
:100F780049024FEA402037D04FF0805343EA11111D
:100F880043EA10130CF000408B4238BF5B0042F17B
:100F98007D024FF4000C8B4224BF5B1A40EA0C0020
:100FA800B3EB510F24BFA3EB510340EA5C00B3EB52
:100FB800910F24BFA3EB910340EA9C00B3EBD10F40
:100FC80024BFA3EBD10340EADC001B0118BF5FEA92
:100FD8001C1CE0D1FD2A3FF650AF8B4240EBC250BB
:100FE80008BF20F0010070470CF0004C4CEA50207C
:100FF8007F32C2BFD2F1FF0340EAC250704740F4CB
:1010080000004FF00003013A37E792F0000F00F0BC
:10101800004C02BF400010F4000F013AF9D040EA3A
:101028000C0093F0000F01F0004C02BF490011F4CE
:10103800000F013BF9D041EA0C0195E70CEAD153C6
:1010480092EA0C0F08D142027FF47DAF93EA0C0FAD
:101058007FF470AF084676E793EA0C0F04D14B0291
:101068003FF44CAF08466EE730F0004C18BF31F043
:10107800004CCAD130F000427FF45CAF31F000433D
:101088007FF43CAF5FE700BF4FF0FF3C06E000BFD6
:101098004FF0010C02E000BF4FF0010C4DF804CDF9
:1010A8004FEA40024FEA41037FEA226C18BF7FEA09
:1010B800236C11D001B052EA530C18BF90EA010F0B
:1010C80058BFB2EB030088BFC81738BF6FEAE1709A
:1010D80018BF40F0010070477FEA226C02D15FEA36
:1010E800402C05D17FEA236CE4D15FEA412CE1D0A2
:1010F8005DF8040B704700BF844608466146FFE769
:101108000FB5FFF7C9FF002848BF10F1000F0FBD4A
:101118004DF808EDFFF7F4FF0CBF012000205DF843
:1011280008FB00BF4DF808EDFFF7EAFF34BF0120C8
:1011380000205DF808FB00BF4DF808EDFFF7E0FF61
:1011480094BF012000205DF808FB00BF4DF808EDB2
:10115800FFF7D2FF94BF012000205DF808FB00BF15
:101168004DF808EDFFF7C8FF34BF012000205DF8F7
:1011780008FB00BF4FEA4002B2F1FE4F0FD34FF019
:101188009E03B3EB12620DD94FEA002343F00043EC
:1011980010F0004F23FA02F018BF404270474FF09A
:1011A8000000704712F1610F01D1420205D110F021
:1011B800004008BF6FF0004070474FF000007047D4
:1011C80082B0084B1B68084AA2FB03235B0A00FB9A
:1011D80003F0019000BF019B5A1E0192002BF9D128
:1011E80002B0704700000020D34D621070B582B085
:1011F8000446036813F0010F2CD0AB4B5B6803F077
:101208000C03042B1DD0A84B5B6803F00C03082BC0
:1012180012D06368B3F5803F41D0002B55D103F15C
:10122800804303F504331A6822F480321A601A687E
:1012380022F480221A6037E09B4B5B6813F4803FEE
:10124800E7D0994B1B6813F4003F03D06368002B69
:1012580000F0AE81236813F0020F76D0924B5B68E2
:1012680013F00C0F5FD0904B5B6803F00C03082B56
:1012780054D02369002B00F08A808C4B01221A601D
:1012880000F0F8FF0546884B1B6813F0020F75D174
:1012980000F0F0FF401B0228F5D903208BE1824AB9
:1012A800136843F480331360636843B300F0E2FFCC
:1012B80005467D4B1B6813F4003FCBD100F0DAFFE5
:1012C800401B6428F5D9032075E1B3F5A02F09D098
:1012D800754B1A6822F480321A601A6822F4802248
:1012E8001A60E1E703F18043A3F53C331A6842F43E
:1012F80080221A601A6842F480321A60D4E700F03B
:10130800B9FF0546684B1B6813F4003FA2D000F0F4
:10131800B1FF401B6428F5D903204CE1624B5B68A0
:1013280013F4803FA5D1604B1B6813F0020F04D063
:101338002369012B01D001203DE15B4A136823F0AA
:10134800F803616943EAC1031360236813F0080FC7
:1013580032D0A369002B5BD0554B01221A6000F0F4
:1013680089FF0546504B5B6A13F0020F21D100F04C
:1013780081FF401B0228F5D903201CE14A4A136863
:1013880023F0F803616943EAC1031360DDE7474BC3
:1013980000221A6000F06EFF0546434B1B6813F0ED
:1013A800020FD2D000F066FF401B0228F5D90320B7
:1013B80001E10120FFF704FF236813F0040F00F098
:1013C8009780394BDB6913F0805F33D1364BDA698C
:1013D80042F08052DA61DB6903F080530193019B8C
:1013E8000125344B1B6813F4807F25D0E368012B5B
:1013F80036D0002B4CD103F1804303F504331A6A2D
:1014080022F001021A621A6A22F004021A622CE01F
:10141800274B00221A6000F02DFF0546224B5B6A1D
:1014280013F0020FC8D000F025FF401B0228F5D9A1
:101438000320C0E00025D4E71E4A136843F48073F4
:10144800136000F017FF06461A4B1B6813F4807FE1
:10145800CCD100F00FFF801B6428F5D90320AAE047
:10146800114A136A43F001031362E36873B300F08F
:1014780001FF06460C4B1B6A13F0020F37D100F030
:10148800F9FE801B41F288339842F3D9032092E099
:10149800052B11D0044B1A6A22F001021A621A6A4B
:1014A80022F004021A62E0E7001002400000424203
:1014B8008004424200700040414B1A6A42F0040224
:1014C8001A621A6A42F001021A62CEE700F0D2FEEE
:1014D80006463B4B1B6A13F0020F08D000F0CAFE09
:1014E800801B41F288339842F3D9032063E0E5B9C1
:1014F800E369002B5ED0324A526802F00C02082AD7
:101508005BD0022B17D02F4B00221A6000F0B2FEDE
:1015180004462B4B1B6813F0007F47D000F0AAFE4F
:10152800001B0228F5D9032045E0254AD36923F09A
:101538008053D361DCE7234B00221A6000F09AFE47
:1015480005461F4B1B6813F0007F06D000F092FE83
:10155800401B0228F5D903202DE0236AB3F5803F0C
:101568001AD017494B6823F47413226A606A02433D
:1015780013434B60134B01221A6000F07BFE0446B4
:101588000F4B1B6813F0007F0ED100F073FE001B99
:101598000228F5D903200EE0094A536823F40033E2
:1015A800A1680B435360DCE7002004E0002002E060
:1015B800012000E0002002B070BD0120FBE700BF61
:1015C800001002406000424210B487B0164C94E804
:1015D8000F000DF1180C0CE90F00238AADF8043048
:1015E800124B5B6803F00C02082A1AD1C3F383423A
:1015F800624412F8100C13F4803F05D10C4B03FB26
:1016080000F007B010BC7047084B5B68C3F3404359
:10161800634413F8142C074BB3FBF2F300FB03F0FD
:10162800EFE70448EDE700BF3C4D0008001002401A
:1016380000093D0000127A00594B1B6803F00703AC
:101648008B420CD2564A136823F007030B431360EE
:10165800136803F007038B4201D00120704770B56F
:10166800036813F0020F06D04E4A536823F0F003C4
:101678008468234353600C460546036813F0010F42
:1016880052D04368012B23D0022B28D0454A126838
:1016980012F0020F00F0828042494A6822F00302E9
:1016A80013434B6000F0E6FD06466B68012B1DD026
:1016B800022B2AD03B4B5B6813F00C0F34D000F0A0
:1016C800D9FD801B41F288339842F3D9032064E0A6
:1016D800344A126812F4003FDED101205DE0314A3D
:1016E800126812F0007FD7D1012056E02D4B5B68BD
:1016F80003F00C03042B17D000F0BCFD801B41F253
:1017080088339842F2D9032047E0264B5B6803F000
:101718000C03082B08D000F0ADFD801B41F2883384
:101728009842F2D9032038E01D4B1B6803F00703E9
:10173800A3420CD91A4A136823F007032343136002
:10174800136803F00703A34201D0012025E02B68AA
:1017580013F0040F06D0134A536823F4E063E968D2
:101768000B4353602B6813F0080F07D00D4A5368DA
:1017780023F46053296943EAC1035360FFF724FF48
:10178800084B5B68C3F30313074AD35CD840074B85
:101798001860002000F03EFD002070BD0120FCE72D
:1017A8000020024000100240504D000800000020B8
:1017B800014B1868704700BF0000002008B5FFF70C
:1017C800F7FF044B5B68C3F30223034AD35CD8409A
:1017D80008BD00BF00100240604D000808B5FFF7C3
:1017E800E7FF044B5B68C3F3C223034AD35CD840CA
:1017F80008BD00BF00100240604D000830B4036A05
:1018080023F001030362056A4268846924F07304C3
:101818000B681C4325F002058B682B43104DA8422A
:1018280003D005F50065A84205D123F00803CD686B
:101838002B4323F004030A4DA84203D005F50065A5
:10184800A84205D122F440724D6915438A692A439A
:10185800426084614A684263036230BC704700BFDB
:10186800002C014030B4036A23F480730362036AD6
:101878004268C46924F073040D682C4323F4007390
:101888008D6843EA0523124DA84203D005F500658B
:10189800A84206D123F40063CD6843EA052323F464
:1018A80080630B4DA84203D005F50065A84207D117
:1018B80022F440524D6942EA05128D6942EA051246
:1018C8004260C4614A68C263036230BC704700BFAB
:1018D800002C014030B4036A23F480530362036A86
:1018E8004468C26922F4E6420D6842EA052223F4FC
:1018F80000538D6843EA0533094DA84203D005F526
:101908000065A84204D124F480444D6944EA851452
:101918004460C2614A680264036230BC704700BF19
:10192800002C014010B4036A046A24F00104046224
:10193800846924F0F00444EA021223F00A030B43FA
:101948008261036210BC704710B4036A23F010036D
:1019580003628469036A24F4704444EA023223F07F
:10196800A00343EA01138261036210BC704710B4FC
:10197800846824F47F4442EA03230B4323438360AF
:1019880010BC704710B50468A26822F070024B685A
:10199800134323F007030A681343A3604B68502BD3
:1019A8001ED00AD9602B21D0702B05D10B698A680B
:1019B800C9680068FFF7DBFF10BD402BFCD1036846
:1019C8001C6A1A6A22F001021A620268936923F0FB
:1019D800F003096943EA0113936103681C62EBE7AA
:1019E8000A6989680068FFF79DFFE5E70A69896861
:1019F8000068FFF7A9FFDFE7704738B590F83C307B
:101A0800012B18D00446012580F83C50022380F8A9
:101A18003D30FFF7B7FF2268D36823F04003D36057
:101A28002268D36823F48043D36084F83D500020B3
:101A380084F83C0038BD0220FCE700000368244A13
:101A4800904212D002F5006290420ED0B0F1804F61
:101A58000BD0A2F59832904207D002F580629042EE
:101A680003D002F58062904203D123F070034A68E4
:101A78001343174A904212D002F5006290420ED0EA
:101A8800B0F1804F0BD0A2F59832904207D002F502
:101A98008062904203D002F58062904203D123F421
:101AA8004073CA68134323F080034A6913430360F1
:101AB8008B68C3620B688362054B984203D003F5B9
:101AC8000063984201D10B690363012343617047A6
:101AD800002C0140A8B110B5044690F83D305BB128
:101AE800022384F83D30211D2068FFF7A7FF01235A
:101AF80084F83D30002010BD80F83C30FFF77CFFB3
:101B0800EEE701207047000030B4036A23F01003A9
:101B18000362036A4468826922F4E6420D6842EA75
:101B2800052223F020038D6843EA0513114DA842CE
:101B380003D005F50065A84206D123F08003CD68DF
:101B480043EA051323F040030A4DA84203D005F5E4
:101B58000065A84207D124F440644D6944EA85042D
:101B68008D6944EA8504446082614A68826303623D
:101B780030BC7047002C014038B590F83C30012B40
:101B880066D00D460446012380F83C30022380F8D5
:101B98003D300C2A1AD8DFE802F007191919201964
:101BA80019193419191947000068FFF727FE226828
:101BB800936943F0080393612268936923F004034F
:101BC80093612268936929690B439361012384F81F
:101BD8003D30002084F83C0038BD0068FFF794FFD2
:101BE8002268936943F4006393612268936923F43C
:101BF8008063936122689369296943EA01239361A9
:101C0800E4E70068FFF72EFE2268D36943F0080373
:101C1800D3612268D36923F00403D3612268D369AE
:101C280029690B43D361D1E70068FFF753FE2268A7
:101C3800D36943F40063D3612268D36923F48063D2
:101C4800D3612268D369296943EA0123D361BDE7D7
:101C58000220C1E710B4012303FA01F4036A23EA5E
:101C680004030362036A8A401343036210BC70478B
:101C780010B5044601220068FFF7ECFF2368094A03
:101C8800934203D002F50062934203D15A6C42F4A6
:101C980000425A642268136843F00103136000206D
:101CA80010BD00BF002C014010B4042303FA01F456
:101CB800036A23EA04030362036A8A401343036244
:101CC80010BC704710B5044604220068FFF7ECFF0B
:101CD8002268536C43F4004353642268136843F04A
:101CE80001031360002010BD90F83C30012B25D073
:101CF800012380F83C30CB6823F440738A6813438F
:101D080023F480634A68134323F400630A68134387
:101D180023F480530A69134323F400534A69134395
:101D280023F480438A69134323F40043134302686E
:101D38005364002380F83C301846704702207047EF
:101D480090F83C30012B22D030B4012280F83C209E
:101D5800022380F83D300468636823F070036360F1
:101D6800046863680D682B4363600468A36823F004
:101D78008003A3600468A36849680B43A36080F8E4
:101D88003D20002380F83C30184630BC70470220C4
:101D980070470000034690F82420012A20D0012231
:101DA80080F824200268906810F0010F07D10D48D0
:101DB800806810F0010F02D10B48824208D09A6A5D
:101DC80042F020029A620120002283F82420704702
:101DD800506820F470200968014351600020F3E73F
:101DE800022070470028014000240140074AD368B8
:101DF80023F4E0631B041B0C000200F4E0601843AA
:101E080040F0BF6040F40030D060704700ED00E063
:101E180030B4174BDB68C3F30223C3F10704042C67
:101E280028BF04241D1D062D18D9033B4FF0FF358C
:101E380005FA04F421EA0401994005FA03F322EAB9
:101E48000303194300280BDB0901C9B200F1604004
:101E580000F5614080F8001330BC70470023E5E7C7
:101E680000F00F000901C9B2024B1954F4E700BF92
:101E780000ED00E014ED00E000F01F02400901232E
:101E88009340024A42F82030704700BF00E100E06A
:101E98000138B0F1807F0AD2064B5860064AF0211B
:101EA80082F823100020986007221A6070470120EA
:101EB800704700BF10E000E000ED00E0042805D006
:101EC800054A136823F0040313607047024A136835
:101ED80043F004031360704710E000E0704708B552
:101EE800FFF7FCFF08BD0000F0B482B000263546BD
:101EF800ABE0002C63D0012C00D1CE68FF2B72D848
:101F08008446FF2B72D8AC00DCF800200F27A740CE
:101F180022EA070206FA04F42243CCF800204A68B1
:101F280012F0805F00F09080654A946944F00104E3
:101F38009461926902F001020192019AAC08A71C0F
:101F4800604A52F827C005F0030297000F22BA40F2
:101F58002CEA020C5C4A90424ED002F58062904214
:101F680000F08B8002F58062904200F0888002F5D4
:101F78008062904200F0858002F58062904200F015
:101F8800828002F58062904234D0062235E04F4FBD
:101F9800BC4214D00BD94E4FBC4210D007F5803745
:101FA800BC420CD0A7F58017BC42A7D107E0A7F523
:101FB8008017BC4203D007F58037BC429ED18C689D
:101FC8007CB1012C08D04261082697E7CE68083614
:101FD80094E7CE680C3691E7026108268EE7002662
:101FE8008CE704268AE700F1040C8AE7A5F10804C7
:101FF800A40089E7052200E00022BA4042EA0C0268
:102008000234304F47F824204A6812F4803F3CD00D
:10201800304C22681A4322604A6812F4003F3AD0D2
:102028002C4C62681A4362604A6812F4801F38D0E8
:10203800284CA2681A43A2604A6812F4001F36D0DE
:10204800244CE2681343E36001350F2D35D8012293
:10205800AA400B6813409A42F6D14C68122CB8D0AB
:1020680095D8022CB2D07FF644AF032CB7D0112CF0
:102078007FF444AFCE68043640E70122BDE7022270
:10208800BBE70322B9E70422B7E7124C226822EA29
:1020980003022260C0E70F4C626822EA0302626012
:1020A800C2E70C4CA26822EA0302A260C4E7094C0A
:1020B800E26822EA0303E360C6E702B0F0BC7047B7
:1020C80000100240000001400008014000002110FB
:1020D80000003110000401408368194201D100203A
:1020E80070470120704712B9090401617047016106
:1020F8007047C3685940C1607047000070B582B02E
:102108000446036813F0010F34D03E4BDB6913F02B
:10211800805F48D13B4BDA6942F08052DA61DB6973
:1021280003F080530193019B0125374B1B6813F47F
:10213800807F3AD0334B1B6A13F4407311D0626826
:1021480002F440729A420CD02E4A136A23F440706B
:102158002E4901260E6000260E60106213F0010F52
:1021680037D1284A136A23F4407361680B4313621A
:10217800002D3FD1236813F0020F06D0214A53687F
:1021880023F44043A1680B435360236813F0100FF6
:1021980035D01C4A536823F4800361690B435360AC
:1021A800002002B070BD0025BFE7174A136843F44A
:1021B8008073136000F05EF80646134B1B6813F437
:1021C800807FB7D100F056F8801B6428F5D903202A
:1021D800E7E700F04FF806460A4B1B6A13F0020FB8
:1021E800BFD100F047F8801B41F288339842F3D9F9
:1021F8000320D6E7D36923F08053D361BAE70020E0
:10220800CFE700BF00100240007000404004424287
:102218007047000010B50446074B1868074BA3FB2E
:1022280000308009FFF734FE002221464FF0FF30CE
:10223800FFF7EEFD002010BD00000020D34D621016
:1022480008B5074A136843F0100313600320FFF72B
:10225800CDFD0020FFF7DEFFFFF7DAFF002008BD05
:1022680000200240024A136801331360704700BF20
:10227800E0000020014B1868704700BFE000002014
:1022880030B583B00190FFF7F5FF0546019CB4F126
:10229800FF3F00D00134FFF7EDFF401BA042FAD307
:1022A80003B030BD7047000030B482B00023019302
:1022B80090F82430012B00F08B800246012380F82F
:1022C80024304B68062B29D80568686B03EB830319
:1022D800053B1F249C4020EA04000C6804FA03F321
:1022E80003436B630B68092B38D91568E86803EB5F
:1022F80043031E3B07249C4020EA04008C6804FA30
:1023080003F30343EB600B68103B012B34D9002027
:10231800002382F8243002B030BC70470C2B0ED852
:102328000568286B03EB8303233B1F249C4020EAAA
:1023380004000C6804FA03F303432B63D2E705682F
:10234800E86A03EB8303413B1F249C4020EA040016
:102358000C6804FA03F30343EB62C3E715682869C2
:1023680003EB430307249C4020EA04008C6804FA2A
:1023780003F303432B61C6E713681648834205D06D
:10238800936A43F0200393620120C1E7986810F430
:10239800000F1BD1986840F4000098600B68102B60
:1023A80001D00020B4E70C4B1B680C49A1FB0313B8
:1023B8009B0C03EB83035900019102E0019B013B55
:1023C8000193019B002BF9D10020A1E700209FE792
:1023D8000220A0E7002401400000002083DE1B4308
:1023E80030B583B00023019303689A6812F0010F97
:1023F8002ED19A6842F001029A60174B1B68174A5F
:10240800A2FB03239B0C019302E0019B013B019378
:10241800019B002BF9D10446FFF72CFF05462368E2
:102428009B6813F0010F11D1FFF724FF401B02280E
:10243800F5D9A36A43F01003A362E36A43F00103EA
:10244800E362002384F82430012002E0002000E049
:10245800002003B030BD00BF0000002083DE1B4316
:1024680090F82430012B6AD010B50446012380F877
:102478002430FFF7B5FF024600285BD1A36A23F496
:10248800407323F0010343F48073A36223682D494A
:102498008B4227D0A16A21F48011A162596811F4F6
:1024A800806F05D0A16A21F4405141F48051A162A6
:1024B800A16A11F4805F2BD0E16A21F00601E16284
:1024C800002184F824106FF00201196023689968CC
:1024D80001F46021B1F5602F1DD0996841F4801195
:1024E80099602AE0A1F58061496811F4702FD1D074
:1024F800A16A41F48011A1621349496811F4806FFF
:10250800D6D0A16A21F4405141F48051A162CFE7AD
:102518000021E162D4E70B498B4204D0996841F469
:10252800A001996009E0A1F58061496811F4702F54
:10253800D3D1F3E7002384F82430104610BD0222DB
:1025480010467047002801400024014038B5036850
:102558009A6812F0010F01D1002038BD04469A682C
:1025680022F001029A60FFF785FE054623689B6802
:1025780013F0010F0ED0FFF77DFE401B0228F5D99E
:10258800A36A43F01003A362E36A43F00103E36222
:102598000120E2E70020E0E7002800F08A8070B51B
:1025A8000446836A002B36D02046FFF7CFFFA36A84
:1025B80013F0100377D1002875D1A26A22F488524B
:1025C80022F0020242F00202A262626825683A49D9
:1025D8008D4226D0E1690A43E66842EA4602A168CC
:1025E800B1F5807F27D0012922D06169012925D042
:1025F800696821F469410B436B6021688D682F4B32
:102608002B4013438B60A368B3F5807F27D0012B41
:1026180025D0002126E0C36280F82430FFF742FE6F
:10262800C2E7E169B1F5402FD5D14FF40021D2E7D7
:102638004FF48073D9E74FF48073D6E736B9A169B0
:10264800013943EA413343F40063D1E7A16A41F019
:102658002001A162E16A41F00101E162C8E7236952
:10266800013B19052568EB6A23F470030B43EB6201
:1026780023689968124B0B409A420BD0A36A23F047
:10268800120343F01003A362E36A43F00103E36219
:1026980001200DE00023E362A36A23F0030343F063
:1026A8000103A36204E0A36A43F01003A3620120BC
:1026B80070BD0120704700BF003C0140FDF7E1FFFD
:1026C800FE0E1FFF0268D36823F0C003D3602023E7
:1026D80080F8393070470268D36823F49073D36068
:1026E8000268536923F001035361202380F83A30CC
:1026F800704700002DE9F84305460268136923F482
:102708004053C1680B4313618368026913434269EC
:1027180013430168CA6822F4B05222F00C02134332
:10272800CB600268536923F4407381690B4353619A
:102738000268594B9A4257D0FFF740F800EB8000E7
:1027480000EB80006C68A400B0FBF4F4534FA7FBC7
:10275800043464092601FFF731F800EB800000EB30
:1027680080006C68A400B0FBF4F9FFF727F800EBD1
:10277800800000EB80006C68A400B0FBF4F4A7FBB9
:10278800043464094FF0640808FB149424013234BB
:10279800A7FB0434640904F0F0043444FFF70EF88E
:1027A80000EB800000EB80006E68B600B0FBF6F628
:1027B800FFF704F800EB800000EB80006B689B00DB
:1027C800B0FBF3F0A7FB0030400908FB10684FEAA4
:1027D800081808F13208A7FB0837C7F343172B6816
:1027E80027449F60BDE8F883FEF7F8FF00EB800000
:1027F80000EB80006C68A400B0FBF4F4274FA7FB43
:10280800043464092601FEF7E9FF00EB800000EBC1
:1028180080006C68A400B0FBF4F9FEF7DFFF00EB62
:10282800800000EB80006C68A400B0FBF4F4A7FB08
:10283800043464094FF0640808FB1494240132340A
:10284800A7FB0434640904F0F0043444FEF7C6FF1F
:1028580000EB800000EB80006E68B600B0FBF6F677
:10286800FEF7BCFF00EB800000EB80006B689B006C
:10287800B0FBF3F0A7FB0030400908FB10684FEAF3
:10288800081808F13208A7FB0837C7F343172B6865
:1028980027449F60A6E700BF003801401F85EB5121
:1028A800704758B310B5044690F839300BB3242359
:1028B80084F839302268D36823F40053D360204663
:1028C800FFF718FF2268136923F490431361226805
:1028D800536923F02A0353612268D36843F40053F1
:1028E800D3600020E063202384F8393084F83A303C
:1028F80010BD80F83830FFF7D3FFD8E701207047C4
:1029080030B583B090F83A40E4B2202C3DD100298C
:102918003ED0002A3ED090F83830012B3CD01346E8
:102928000A460446012180F8381082628385002512
:10293800C563222180F83A10416B18488862616BA0
:102948001748C862616B17480863616B4D6321685B
:102958000431606B00F0E2F8019523681A6801926F
:102968005A680192019A84F83850DA6842F4807201
:10297800DA602268536943F001035361226853699E
:1029880043F040035361284600E0022003B030BD05
:102998000120FBE70120F9E70220F7E7B329000847
:1029A800F3290008FF290008704708B5436A026840
:1029B800126812F0200F13D10022DA851968CA684C
:1029C80022F48072CA6019684A6922F001024A61D9
:1029D80019684A6922F040024A61202283F83A20A5
:1029E8001846FFF7E1FF08BD704708B5406AFFF7D2
:1029F800FBFF08BD704710B5446A23685A6994F80C
:102A08003930DBB2212B10D023685A6902F040021A
:102A180094F83A30DBB2222B11D0E36B43F0100369
:102A2800E3632046FFF7E6FF10BD02F08002002AAC
:102A3800EAD00023E3842046FFF744FEE4E7002AB7
:102A4800EBD00023E3852046FFF745FEE5E770B4A9
:102A5800066CC56B0124B4406C600468636043680D
:102A6800102B05D0036899600368DA6070BC704762
:102A780003689A600368D960F8E7000000283FD02F
:102A880010B4034601681F4A91422ED81E4A0A44D0
:102A98001E49A1FB02121209920002641C4AC26379
:102AA800022283F821201868016821F47F5121F05F
:102AB80030015A689C682243DC6822431C6922431F
:102AC8005C6922439C692243DC6922430A43026011
:102AD80000209862D862186358639863012283F8CB
:102AE800212083F8200010BC70470A4A0A4407498D
:102AF800A1FB0212120992000264074AC263CFE7DF
:102B08000120704707040240F8FFFDBFCDCCCCCCB4
:102B180000000240F8FBFDBF0004024038B590F801
:102B28002040012C32D0012480F8204090F8214028
:102B3800012C04D0002380F82030022038BD044640
:102B4800022084F821000020A0632568286820F06E
:102B5800010028602046FFF77AFFE36A5BB122682C
:102B6800136843F00E0313602268136843F00103EF
:102B780013600020E2E72268136823F0040313605F
:102B88002268136843F00A031360EDE70220D5E7D3
:102B980038B5C36B1A6804682568016C04238B4038
:102BA800134200F09B8015F0040F00F09780236813
:102BB80013F0200F03D1236823F004032360036874
:102BC800AA4A934246D9783A934224D0143293427F
:102BD80028D01432934227D01432934227D014328B
:102BE800934227D01432934227D01432934227D0ED
:102BF80002F56272934226D01432934225D01432E1
:102C0800934224D01432934202D04FF4802203E03E
:102C18004FF4804200E00422954B5A60C36A03B126
:102C2800984738BD4022F7E74FF48062F4E74FF445
:102C38008042F1E74FF48022EEE74FF48002EBE7A1
:102C48004FF08062E8E70422E6E74022E4E74FF429
:102C58008062E1E7874A934224D01432934225D018
:102C68001432934224D01432934224D01432934223
:102C780024D01432934224D01432934224D002F543
:102C88006272934223D01432934222D01432934278
:102C980021D01432934202D04FF4802203E04FF443
:102CA800804200E00422744B5A60B7E74022FAE7FA
:102CB8004FF48062F7E74FF48042F4E74FF4802244
:102CC800F1E74FF48002EEE74FF08062EBE7042271
:102CD800E9E74022E7E74FF48062E4E702238B400C
:102CE800134200F0A38015F0020F00F09F802368C4
:102CF80013F0200F06D1236823F00A032360012371
:102D080080F821300368594A93424BD9783A934264
:102D180024D0143293422DD0143293422CD0143242
:102D280093422CD0143293422CD0143293422CD09C
:102D3800143293422CD002F5627293422BD0143293
:102D480093422AD01432934229D01432934202D0AB
:102D58004FF4003203E04FF4005200E00222444BEB
:102D68005A60002380F82030836A002B3FF459AF63
:102D7800984756E72022F2E74FF40072EFE74FF446
:102D88000052ECE74FF40032E9E74FF40012E6E7AF
:102D98004FF00072E3E70222E1E72022DFE74FF479
:102DA8000072DCE7334A934224D01432934225D090
:102DB8001432934224D01432934224D014329342D2
:102DC80024D01432934224D01432934224D002F5F2
:102DD8006272934223D01432934222D01432934227
:102DE80021D01432934202D04FF4003203E04FF462
:102DF800005200E00222204B5A60B2E72022FAE794
:102E08004FF40072F7E74FF40052F4E74FF4003242
:102E1800F1E74FF40012EEE74FF00072EBE7022201
:102E2800E9E72022E7E74FF40072E4E7082303FA12
:102E380001F111423FF4F5AE15F0080F3FF4F1AE81
:102E4800236823F00E032360026CC16B012303FA8D
:102E580002F24A60836380F82130002380F8203032
:102E6800036B002B3FF4DDAE9847DAE680000240A2
:102E78000004024008000240000002400F4B1A689C
:102E880042F001021A6059680D4A0A405A601A68ED
:102E980022F0847222F480321A601A6822F48022A6
:102EA8001A605A6822F4FE025A604FF41F029A60B0
:102EB800044B4FF000629A60704700BF0010024058
:102EC8000000FFF800ED00E0F0B589B03E4EF36970
:102ED80043F40033F361F36903F400330093009B78
:102EE800062205211020FEF793FF1020FEF7C4FFED
:102EF800072205211120FEF78BFF1120FEF7BCFFEA
:102F0800324D334B2B604FF496436B600024AC601A
:102F1800EC602C610C236B61AC612846FFF7C1FCA7
:102F2800736943F001037361736903F0010301934B
:102F3800019BB36943F00403B361B36903F004036D
:102F48000293029BF36943F40033F361F36903F4DA
:102F580000330393039B0123069304230493022362
:102F6800059303230793A6F5843604A93046FEF794
:102F7800BBFF08230493059404A93046FEF7B4FF69
:102F8800144E154B33607460B4608027F760346169
:102F980074612023B361F4613046FFF76FFD6E63FF
:102FA80075620E4E0E4B336010237360B460F76089
:102FB80034617461B461F4613046FFF75FFD2E63DC
:102FC800756209B0F0BD00BF00100240FC0200208D
:102FD80000440040E40000206C000240A4020020ED
:102FE8008000024030B597B01F4BDA6942F4802266
:102FF800DA61DA6902F480220092009A5A6942F092
:1030080001025A615B6903F001030193019B174DAB
:1030180006954FF4E13307930024089409940A9421
:1030280008230B930C940D9406A8FFF73AFC6B69E0
:1030380043F080036B614FF4806302930123049390
:10304800022303930323059302A90948FEF74CFFC3
:10305800084B1C60084A9A605C6090221A601C3B0E
:1030680070225A6017B030BD00100240004800407E
:10307800000C01401C000240044800402DE9F04FBC
:1030880089B07B4B9A6942F004029A619A6902F00E
:1030980004020192019A9A6942F008029A619A69B7
:1030A80002F008020292029A9A6942F010029A61AA
:1030B8009B6903F010030393039B00230593069376
:1030C800022707974FF0200A0DEB0A0444F810ADC9
:1030D80021466848FEF708FF4023049321466548C7
:1030E800FEF702FF8025049521466248FEF7FCFEA4
:1030F8004FF48063049321465F48FEF7F5FE4FF4D2
:103108000063049321465C48FEF7EEFE4FF48056B8
:10311800049621465848FEF7E7FE0496214657488C
:10312800FEF7E2FE049721465448FEF7DDFE4FF015
:103138000108CDF814804FF00409CDF8109021460D
:103148004C48FEF7D1FE1026049621464B48FEF760
:10315800CBFECDF810A021464848FEF7C5FE032354
:103168000593CDF8108021464348FEF7BDFECDF803
:10317800108021464148FEF7B7FE4FF0080BCDF806
:1031880010B021463C48FEF7AFFE049721463A4866
:10319800FEF7AAFE049621463748FEF7A5FECDF8AD
:1031A80010A021463448FEF79FFECDF81090214626
:1031B8003148FEF799FECDF810B021462F48FEF7AA
:1031C80093FECDF8109021462C48FEF78DFE05970A
:1031D8004023049321462848FEF786FE049521469D
:1031E8002548FEF781FE4FF48079CDF810902146EE
:1031F8002148FEF779FE049521462048FEF774FE23
:10320800CDF8108021461B48FEF76EFE0497214634
:103218001848FEF769FECDF8109021461748FEF7CA
:1032280063FE4FF40073049321461448FEF75CFED6
:103238004FF48063049321461048FEF755FE4FF47F
:103248000053049321460B48FEF74EFE4FF480438B
:10325800049321460748FEF747FE4FF400430493C2
:1032680021460448FEF740FE09B0BDE8F08F00BFD4
:1032780000100240000C014000100140000801400D
:103288002DE9F04F99B0754B9A6942F400629A6142
:103298009A6902F400620192019A9A6942F4005212
:1032A8009A619B6903F400530293029B6C4EDFF80A
:1032B800B891C6F80090002474604FF02008C6F852
:1032C80008804FF4FA6BC6F80CB034617461B461CD
:1032D8003046FEF7FFFB10231693179416A93046C5
:1032E800FEF72EFD60230F93109411940827129770
:1032F800139414944FF40073159322460FA9304683
:10330800FEF73AFC04220FA93046FEF735FC3A4690
:103318000FA93046FEF730FC4FF4006308934FF4D2
:10332800806309930A94CDF82C800C940D940E9424
:103338000DEB08013046FEF7D7FC4A4DDFF82CA10B
:10334800C5F800A06C60C5F80880C5F80CB02C6101
:103358006C61AC612846FEF7BDFBCDF85880802330
:10336800179316A92846FEF7EBFC049418A9052321
:1033780041F8543D2846FEF740FB60230F93109414
:1033880011941297139414944FF4007315932246D2
:103398000FA92846FEF7F0FB04220FA92846FEF7DE
:1033A800EBFB3A460FA92846FEF7E6FB4FF400630D
:1033B80008934FF4806309930A94CDF82C800C94F9
:1033C8000D940E940DEB08012846FEF78DFCDAF8F3
:1033D800443023F40043CAF84430D9F8443023F485
:1033E8000043C9F8443021462846FEF741FC042131
:1033F8002846FEF73DFC39462846FEF739FC2146AB
:103408002846FEF75FFC04212846FEF75BFC394698
:103418002846FEF757FC21463046FEF729FC0421D2
:103428003046FEF725FC39463046FEF721FC21469A
:103438003046FEF747FC04213046FEF743FC394688
:103448003046FEF73FFC2B6801221A633268136886
:1034580043F00103136019B0BDE8F08F001002407B
:10346800AC0100203C030020002C01400034014046
:103478002DE9F04186B0424EB36943F40073B3615D
:10348800B36903F400730093009B3E4C3E4B2360EA
:103498004FF48073A3600025E56065614FF4402315
:1034A800E36165604FF00508C4F810802046FFF717
:1034B80073F8364A536843F48023536006A94FF4DF
:1034C800C02341F8043D2046FEF764FC0123049321
:1034D8000E220292039302A92046FEF7E5FE02950A
:1034E8000227039702A92046FEF7DEFE04970B2762
:1034F80002970323039302A92046FEF7D5FE0C2367
:1035080002930423039302A92046FEF7CDFE072366
:10351800049310230293CDF80C8002A92046FEF7ED
:10352800C3FE2268936843F4000343F480739360F6
:10353800936843F001039360736943F00103736177
:10354800736903F001030193019B114B1D60C3F8DC
:103558000480104A9A60104ADA6040F6A2221A6083
:103568001A6842F001021A602A4629463846FEF7D0
:103578004FFC3846FEF780FC06B0BDE8F08100BF7E
:1035880000100240740200200024014000000140A5
:10359800080002404C240140E8020020F0B585B044
:1035A800284B9A6942F480629A619B6903F48063AC
:1035B8000093009B244C254B23604FF48073A36039
:1035C8000023E36063614FF46022E26163600526D3
:1035D80026612046FEF7E0FF012303930F220192A4
:1035E800029301A92046FEF75FFE0D2301930225F1
:1035F800029501A92046FEF757FE03950A23019379
:103608000327029701A92046FEF74EFE01950423E1
:1036180002930DEB03012046FEF746FE07230393B2
:103628000197029601A92046FEF73EFE23689A6894
:1036380042F480729A609A6842F001029A6005B07A
:10364800F0BD00BF00100240280100200028014002
:103658000D4B1B681333262B14D810B500240B4BC5
:103668001C700B4B1C7005E00A4B1C706420FEF7A5
:1036780007FE0134072CF7DD002220210648FEF75B
:1036880032FDFEE7704700BF94030020A800002029
:10369800B4000020A40000200008014030B597B015
:1036A80002250C95012310931023119313950024E0
:1036B80014944FF4601315930CA8FDF797FD0F238E
:1036C8000793089509944FF480630A930B9429464D
:1036D80007A8FDF7B1FF01954FF44043039301A8F4
:1036E800FEF70CFDFEF764F8084BA3FB00308009D9
:1036F800FEF7CEFB0420FEF7E1FB224621464FF001
:10370800FF30FEF785FB17B030BD00BFD34D621008
:103718002DE9F04F87B0FEF793FDBF4CA36943F046
:103728000103A361A36903F001030593059B03202B
:10373800FEF75CFB002211466FF00B00FEF768FBFA
:10374800002211466FF00A00FEF762FB00221146C4
:103758006FF00900FEF75CFB002211466FF00400D1
:10376800FEF756FB002211466FF00300FEF750FBF0
:10377800002211466FF00100FEF74AFB00221146B5
:103788004FF0FF30FEF744FBFFF788FF636923F033
:1037980001036361FFF772FCFFF772FDFFF768FE34
:1037A800FFF7FCFEFFF71EFC012220219B48FEF7D5
:1037B8009AFC9B48FEF754FE9A48FEF751FE0824EF
:1037C80005E0994B1C706420FEF75AFD013C002C63
:1037D800F7DA0024944B1C70012204219348FEF769
:1037E80082FCFFF771FB042291499248FFF788F8A1
:1037F800914B188AFDF7A0FA0390904B01221A709A
:10380800A246C6E14FF47A768D4B1E60884B5B88E2
:103818001BB2B3F57A7F0BDC854B5B881BB213F5C3
:103828007A7F75DB824B5D882DB203E0854EEBE72E
:103838004FF47A75844B1D60844B00221A60DFF8C0
:103848004482D8F80000FCF745FE6DA3D3E90023B5
:10385800FCF7AAFECDE900013046FCF73BFE6AA35F
:10386800D3E90023FCF7A0FE02460B46DDE9000180
:10387800FCF7E4FCFDF732F98346C8F80000DFF8EE
:10388800F881D8F80000FCF725FE5DA3D3E90023F2
:10389800FCF78AFE06460F462846FCF71BFE5AA38D
:1038A800D3E90023FCF780FE02460B463046394632
:1038B800FCF7C4FCFDF712F9C8F80000FCF70AFE93
:1038C8008146884601F100455846FCF703FE002270
:1038D8005F4BFCF769FE06460F4602460B46484614
:1038E8002946FCF7A9FCCDE900010022594BFDF758
:1038F800EBF878B946A3D3E90023DDE90001FDF729
:10390800C5F830BBDDE90001FDF7E8F8054603E03E
:103918004C4D8FE74FF47A754A4643463046394650
:10392800FCF78AFC06460F4600224A4BFDF7CCF806
:1039380088B937A3D3E9002330463946FDF7A6F8FE
:10394800002840F0A18030463946FDF7C7F8064602
:1039580003E03C4DE0E74FF47A7604F13203B342DA
:1039680013DD323CB44210DA0AF13203AB420CDD0B
:10397800AAF1320AAA4508DA344B1B68042B04D88A
:10398800354B1D607342354A1360354B1A68354B09
:10399800A3FB0213DB0803EB830303EB83039A42C5
:1039A80074D002211D48FEF797FB38B12E4B1B68D7
:1039B80023B92E4B1B68002B00F0B9802C4B1C68D8
:1039C8002C492046FDF7AEFB28B12B4B1B6813335F
:1039D800262B40F2B88029492046FDF7A3FB002892
:1039E80000F0B48023492046FDF7BAFB002800F018
:1039F800AD800D4B05221A70214B06221A70B0E0DB
:103A0800CDCCCCCCCCCCEC3F9A9999999999B93F2B
:103A18000000000000408FC0001002400008014074
:103A28007402002028010020A4000020000C01409E
:103A380080030020FC020020E8020020B4000020DF
:103A48009C03002018FCFFFF8803002004000020CE
:103A58000000E03F00408F40C8000020C400002064
:103A68007C0300201F85EB51D0000020CC000020F3
:103A780008000020CCCC06429403002000000C4231
:103A8800A80000208C030020574E66E70398FCF737
:103A980033FD51A3D3E90023FCF786FD8046894610
:103AA800524C208AFDF748F9FCF726FD4CA3D3E9D0
:103AB8000023FCF779FD02460B4640464946FCF7D1
:103AC800BDFBFDF733F8804603904949FDF782F8BE
:103AD8004849FDF789F94849FDF77EF80746294620
:103AE800022000F045FC3146032000F041FCA1898A
:103AF800042000F03DFC4149414B1868FDF774F97A
:103B0800FDF738FB0146052000F032FC4046FDF782
:103B180031FB0146062000F02BFC3846FDF72AFB56
:103B28000146072000F024FC00F028FC39E7354B5B
:103B380000221A7002213448FEF7CEFA0028F9D183
:103B4800FFF786FD3AE7FFF783FD0AE02F4B1B6876
:103B580013F1320F34DA2E4B05221A702D4B012245
:103B68001A7086EAE673A3EBE673322B05DC85EA66
:103B7800E573A3EBE573322B28DD274B00221A608F
:103B8800254B1A68254B9A4201D9FFF761FDAA46D1
:103B980034460520FEF774FB214B1B881BB2B3F596
:103BA8007A7F3FF72FAE1E4B1B881BB213F57A7F27
:103BB800FFF63CAE1A4BB3F800900FFA89F623E6ED
:103BC8000023134A1370134A1370CAE7124A136882
:103BD80001331360D4E700BFAE47E17A14AEEF3F7C
:103BE8007B14AE47E17A843F18FCFFFFE80200200F
:103BF80000E0CE44083748BE33330F420000C842C5
:103C080008000020B40000200008014094030020B0
:103C1800A4000020A80000207C03002080380100B8
:103C28008003002000000000774B02225A60774B87
:103C38001B68B3F57A7F5EDB2DE9F041744B1A6897
:103C4800744BA3FB02139B094FF47A7101FB1323F6
:103C58000BBB714C2068FCF74FFC65A3D3E900232C
:103C6800FCF7A2FC06460F466C4B9889FDF764F8F2
:103C78006B49FDF7B9F8FCF73FFC5FA3D3E90023D4
:103C8800FCF792FC02460B4630463946FCF7D6FA5A
:103C9800FCF74CFF2060614B5889624B1C68001B85
:103CA800FCF718FC56A3D3E90023FCF77DFC00229F
:103CB8000023FCF7EBFE002852D1584B5889001B13
:103CC800FCF708FC4EA3D3E90023FCF76DFC0022A7
:103CD800554BFCF7F9FE002852D1544B1B68052BB5
:103CE8004ED8534B1B78002B4AD0524A536C43F49E
:103CF8000043536449E00133444A1360474A9088BB
:103D08004D490B68034403EBD3735B100B60D088F9
:103D18004A490B68034403EBD3735B100B601088AC
:103D280047490B68034403EBD3735B100B6050885F
:103D380044490B68034403EBD3735B100B60508951
:103D480038490B68034403EBD3735B100B6011898C
:103D58003D4A13680B4403EBD3735B101360704741
:103D68002E4B5889001BFCF7B5FB25A3D3E900238C
:103D7800FCF71AFC0022354BFCF788FE0028ACD073
:103D88002C4A536C23F400435364244B18892E4B5C
:103D98001C68001BFCF79EFB19A3D3E90023FCF762
:103DA80003FC00220023FCF771FE002852D11B4BB4
:103DB8001889001BFCF78EFB11A3D3E90023FCF73D
:103DC800F3FB0022184BFCF77FFE002852D1174B5B
:103DD8001B68052B4ED8164B1B78002B4AD01C4A63
:103DE800536C43F40043536449E000BFAFF30080D1
:103DF800AE47E17A14AEEF3F7B14AE47E17A843FD9
:103E08007B14AE47E17A943F00000240B8000020DE
:103E1800AC000020D34D621008000020E80200200A
:103E280017B9CE3C0C00002000002E4004000020F2
:103E3800B4000020003401401400002018000020C5
:103E48001C000020200000201000002000002EC0D0
:103E5800002C0140904B1889001BFCF73BFB8CA3FE
:103E6800D3E90023FCF7A0FB00228C4BFCF70EFEE5
:103E78000028ACD08A4A536C23F400435364894920
:103E88008B6813F0200F0CBF012300238A6812F0FF
:103E9800400F0CBF01220022896811F0800F0CBF6F
:103EA800012500258049886810F4806F0CBF012027
:103EB80000208C6814F4006F0CBF0124002489686A
:103EC80011F4805F02EB450203EB4203774EF35C8B
:103ED80077490B600B6803F102030B600D68754BA3
:103EE80083FB0572A2EBE57202EB42024FEA42073E
:103EF800A5EB07020A600CBF02220022224400EB55
:103F08004202B05C6C4A10601068023010601068A1
:103F180083FB0043A3EBE07303EB43035C00031B49
:103F2800136009685C488388644A12689A1AC388CF
:103F3800634800681B1A052934D8DFE801F0032319
:103F480026292C2FD31A5F4A13605F4A136801335E
:103F580013605E4A14684CB35D4AA2FB0312120B4D
:103F68005C4909680131B2FBF1F001FB1022EAB9A2
:103F7800B3FBF4F204FB1233EBB910215648FEF7F9
:103F8800B8F818E04F4B1A60DFE74E4B1A60DCE7D1
:103F98004C4A1360D9E74B4A1360D6E79B1A494A43
:103FA8001360D2E7474B00221A60CEE700221021A7
:103FB8004948FEF798F8494BD3F800C03C4B1B68BA
:103FC800052B2BD8DFE803F00312171C2226CCF1AF
:103FD800000064469C46424B1968374B1B68052B0A
:103FE80052D8DFE803F01F3F43474B4E6446CCF1FD
:103FF800000C0020EFE76046CCF1000C0024EAE753
:10400800CCF1000460464FF0000CE4E7CCF100046A
:104018000020E0E7CCF100000024DCE700200446A3
:104028008446D8E74E420F4619462C4B1B68002B96
:1040380040F398802B4B1D681D4B1B6805331D4AA8
:1040480082FB03E2A2EBE37202EB42024FEA420E6A
:10405800A3EB0E02052A00F2B980DFE802F0456AF8
:104068006F74797E0F4649420026DEE70E464942C4
:104078000027DAE74F420E460021D6E74F420026D6
:10408800D3E74E420027D0E7002637463146CCE733
:104098007B14AE47E17A943FE802002000002EC06E
:1040A800002C0140000C014000100140684D000840
:1040B800BC000020ABAAAA2AC000002014000020DF
:1040C80018000020B0000020AC000020A400002050
:1040D8005917B7D1A800002000080140C4000020EB
:1040E800C8000020CC000020C5F10008AE461546E7
:1040F800654474444044964B1B68002B40F3D780BA
:10410800944B1B68944A126802F1050C934A82FB8F
:104118000CE2A2EBEC7202EB42024FEA420EACEB6D
:104128000E02052A00F2F980DFE802F058A8ADB2C5
:10413800B7BCAE466D424FF00008D9E7A8466D42BD
:104148004FF0000ED4E7C5F1000EA8460025CFE7D2
:10415800C5F1000E4FF00008CAE7C5F100084FF09E
:10416800000EC5E77E4B1D68C5F1000E7D4B1A6831
:1041780001327A4B83FB0283A3EBE27303EB430325
:104188004FEA4308A2EB0803052B1AD8DFE803F02F
:104198000323060A0E14A8461D46A9E7F0464FF069
:1041A800000EA5E7F046AE460025A1E72B4675466A
:1041B8009E464FF000089BE7A84675464FF0000E54
:1041C80096E74FF00008C646454691E74FF00008CD
:1041D800C64645468CE74FF0000889E7C3F100085A
:1041E8009E461346194407EB0E0206EB080305F535
:1041F8007A7540F2C676B54200F397800A2DB8BFAB
:104208000A25594E756304F57A7440F2C675AC42B6
:1042180000F38E800A2CB8BF0A24534DAC6300F516
:104228007A7040F2C674A04200F385800A28B8BFAD
:104238000A204D4CE06301F57A7140F2C670814264
:104248007CDC0A29B8BF0A214848416302F57A7222
:1042580040F2C6718A4274DC0A2AB8BF0A2243496E
:104268008A6303F57A7340F2C67293426CDC0A2BB8
:10427800B8BF0A233D4AD363BDE8F0819E465B423E
:104288004FF00008AEE798465B424FF0000EA9E7F2
:10429800C3F1000E98460023A4E7C3F1000E4FF0C7
:1042A80000089FE7C3F100084FF0000E9AE7294B7A
:1042B8001B68C3F1000E284A12680132DFF89CC05F
:1042C8008CFB028CACEBE27C0CEB4C0C4FEA4C0800
:1042D800A2EB080CBCF1050F1AD8DFE80CF0032399
:1042E800060A0E14984663467CE7F0464FF0000E27
:1042F80078E7F0469E46002374E71A4673469646CA
:104308004FF000086EE7984673464FF0000E69E7D5
:104318004FF00008C646434664E74FF00008C6461B
:1043280043465FE74FF000085CE740F2C67568E770
:1043380040F2C67471E740F2C6707AE740F2C6717F
:1043480082E740F2C6728AE740F2C67392E700BF7E
:10435800C8000020D0000020C0000020ABAAAA2A74
:10436800CC000020BC00002000340140002C01409B
:10437800014B23F81010704704040020F0B587B0F3
:104388001A4F64220021384600F0A0F818490A881C
:10439800B1F802C0888800B2CC8824B20D892DB249
:1043A8004E8936B28B891BB2C98909B2059104932B
:1043B80003960295019400900FFA8CF312B20D49FE
:1043C800384600F08BF80C4B5B686BB90A4C2368D5
:1043D80023F0010323603846FBF722FF6060E760A3
:1043E800236843F00103236007B0F0BDA003002059
:1043F80004040020704D00081C0002407047FEE7CE
:10440800FEE7FEE7FEE770477047704708B5FDF71F
:1044180029FFFDF764FD08BD08B50248FEF7B8FBA3
:1044280008BD00BFE400002008B50248FEF7B0FB55
:1044380008BD00BFA4020020002103E00B4B5B581D
:10444800435004310A480B4B42189A42F6D30A4AA1
:1044580002E0002342F8043B084B9A42F9D3FEF7E6
:104468000DFD00F00FF8FFF753F97047D84D00081D
:104478000000002088000020880000201804002088
:10448800FEE7000070B500250C4E0D4CA41BA410CF
:10449800A54209D100F042FC00250A4E0A4CA41B93
:1044A800A410A54205D170BD56F8253098470135AE
:1044B800EEE756F8253098470135F2E7D04D000869
:1044C800D04D0008D04D0008D44D000803460244E2
:1044D800934200D1704703F8011BF9E70EB46FF05F
:1044E800004100B59CB01DAB029006900791049165
:1044F8000848094953F8042B0591006802A901935B
:1045080000F066F80022029B1A701CB05DF804EBFC
:1045180003B07047240000200802FFFF2DE9F04790
:104528008E6882469E420C469046994637D88A89BC
:1045380012F4906F31D00223256809696F1A6569F2
:1045480005EB450595FBF3F509F101033B449D4255
:1045580038BF1D46530530D5294600F037FB0646BF
:1045680050B90C234FF0FF30CAF80030A38943F04C
:104578004003A381BDE8F0873A46216900F0B6FA06
:10458800A38923F4906343F08003A38126613E440A
:1045980026604E466561ED1BA5604E4500D94E4626
:1045A80032464146206800F0ACFAA36800209B1B05
:1045B800A36023681E442660DCE72A4600F060FBFF
:1045C80006460028E2D12169504600F0B3FAC8E750
:1045D8002DE9F04F1D468B899DB01F0680460C467D
:1045E80016460FD50B696BB9402100F0EFFA206031
:1045F800206128B90C23C8F800304FF0FF30C8E01C
:10460800402363610023099320238DF82930302348
:104618004FF0010B8DF82A30039537463D4615F8C3
:10462800013B0BB1252B3ED1B7EB060A0BD0534605
:10463800324621464046FFF771FF013000F0A48062
:10464800099B534409933B78002B00F09D8000237D
:104658004FF0FF32CDE90523049307938DF85330CB
:104668001A932F46052217F8011B504800F030FA1C
:10467800049BD0B9D90644BF20228DF853201A07CD
:1046880044BF2B228DF853202A782A2A15D02F468A
:1046980000200A25079A394611F8013B303B092BBF
:1046A8004DD9B8B10FE02F46B8E7404A3D46801AC9
:1046B8000BFA00F018430490D3E7039A111D12680F
:1046C8000391002A01DB079204E0524243F00203FF
:1046D800079204933B782E2B0CD17B782A2B33D16D
:1046E800039B02371A1D1B680392002BB8BF4FF0BB
:1046F800FF3305932E4D03223978284600F0E8F958
:1047080038B14023401B03FA00F0049B01370343F0
:1047180004933978062227487E1C8DF8281000F06B
:10472800D7F9002838D0244B13BB039B073323F059
:10473800070308330393099B4B4409936DE705FB73
:10474800023201200F46A6E700230A251946013741
:104758000593384610F8012B303A092A03D9002B63
:10476800C8D00591C6E705FB012101230746F0E7FC
:1047780003AB00932246114B04A94046AFF30080D7
:10478800B0F1FF3F8146D6D1A3895B063FF535AF2F
:1047980009981DB0BDE8F08F03AB00932246074B84
:1047A80004A9404600F082F8EAE700BF9C4D0008E3
:1047B800A24D0008A64D000800000000254500088D
:1047C8002DE9F04791461F468A680B6906469342D1
:1047D800B8BF1346C9F8003091F843200C46DDF8FD
:1047E800208012B10133C9F800302368990642BF0E
:1047F800D9F800300233C9F80030256815F00605ED
:1048080007D104F1190AE368D9F800209B1AAB42D2
:1048180029DC94F843302268003318BF012392063C
:104828002ED404F1430239463046C047013021D026
:104838002368E56803F00603042B18BF0025D9F8A0
:1048480000204FF0000908BFAD1AA368226908BF0D
:1048580025EAE5759342C4BF9B1AED181A344D45F5
:104868001AD1002008E00123524639463046C04795
:10487800013003D14FF0FF30BDE8F0870135C2E7C2
:104888003020E11881F843005A1C94F8451022445E
:10489800023382F84310C4E70123224639463046E2
:1048A800C0470130E6D009F10109D8E72DE9F04306
:1048B80001F1430C0C46097E85B06E291746064661
:1048C80098460C9A00F0B38022D8632936D00AD8CB
:1048D800002900F0B980582900F0838004F14205CE
:1048E80084F8421032E0642901D06929F6D12068A1
:1048F8001368050603F104012AD51B681160002B13
:1049080003DA2D225B4284F843206F480A2239E0FB
:10491800732900F09D8008D86F2920D07029DDD137
:10492800236843F02003236003E0752917D0782912
:10493800D4D17823654884F8453055E0136804F1EC
:104948004205191D1B68116084F8423001238CE070
:104958001B6810F0400F116018BF1BB2CFE7136837
:104968002568181D1060280601D51B6802E0680636
:10497800FBD51B886F2914BF0A2208225248002140
:1049880084F843106568002DA560C0F29580216801
:1049980021F004012160002B3DD1002D40F08E80D4
:1049A8006546082A0BD12368DB0708D523696268A6
:1049B8009A42DEBF302305F8013C05F1FF35ACEB28
:1049C80005032361CDF800803B4603AA2146304603
:1049D800FFF7F6FE01304DD14FF0FF3005B0BDE8CE
:1049E800F083394884F84510136821681D1D1B6839
:1049F80015600A060BD5CA0744BF41F020012160A3
:104A08001BB9226822F0200222601022B7E74D0667
:104A180048BF9BB2EFE76546B3FBF2F102FB1133E7
:104A2800C35C05F8013D0B460029F5D1B9E71368C9
:104A38002568181D6169106028061B6801D5196072
:104A480002E06A06FBD51980002365462361B9E7B1
:104A58001368191D11601D6862680021284600F05E
:104A680037F808B1401B606063682361002384F84D
:104A78004330A7E723692A4639463046C047013004
:104A8800AAD023689B0713D4E068039B9842B8BF59
:104A98001846A3E701234A4639463046C047013045
:104AA8009AD00135E368039A9B1AAB42F2DCEBE734
:104AB800002504F11909F5E7002BACD1037804F1BE
:104AC800420584F842306CE7AD4D0008BE4D000841
:104AD80010B5C9B202449042034601D1002303E055
:104AE8001C7801308C42F6D1184610BD10B5431E13
:104AF8000A44914200D110BD11F8014B03F8014F4F
:104B0800F7E7884210B501EB020307D8421E994225
:104B18000AD011F8014B02F8014FF8E78342F5D9A2
:104B28008118D21AD34200D110BD13F8014D01F8F3
:104B3800014DF7E738B50546002943D051F8043C44
:104B48000C1F002BB8BFE41800F0D0F81E4A1368F9
:104B5800104633B9636014602846BDE8384000F059
:104B6800C6B8A3420BD921686218934201BF1A68DC
:104B78005B685218226063600460EDE713465A6868
:104B88000AB1A242FAD919685818A0420BD1206874
:104B98000144581882421960DED1106852680144F5
:104BA80019605A60D8E702D90C232B60D4E7206833
:104BB80021188A4201BF1168526809182160626091
:104BC8005C60C9E738BD00BFD400002070B5CD1CBB
:104BD80025F0030508350C2D38BF0C25002D064699
:104BE80001DBA94203D90C233360002070BD00F01B
:104BF8007DF8214A1468214691B9204C23681BB9D5
:104C0800304600F063F820602946304600F05EF830
:104C1800431C24D10C233046336000F068F8E4E7E5
:104C28000B685B1B18D40B2B0FD90B60CC18CD501D
:104C3800304600F05CF804F10B00231D20F007005B
:104C4800C31AD3D05A42E250D0E74B688C4216BF01
:104C5800636013600C46EBE70C464968CCE7C41C5C
:104C680024F00304A04205D0211A304600F02EF8A3
:104C78000130CFD02560DBE7D4000020D800002029
:104C8800F8B5074614460E4621B9BDE8F840114666
:104C9800FFF79CBF22B9FFF74DFF25462846F8BD10
:104CA80000F026F8A0420FD221463846FFF78EFFC3
:104CB80005460028F2D031462246FFF717FF314655
:104CC8003846FFF737FFE9E73546E7E738B5002309
:104CD800054C05460846236000F012F8431C02D133
:104CE800236803B12B6038BD140400207047704757
:104CF80051F8043C181F002BBCBF0B58C018704754
:104D0800044A05491368002B08BF0B461844106075
:104D180018467047DC00002018040020F8B500BFD2
:104D2800F8BC08BC9E467047F8B500BFF8BC08BC84
:044D38009E467047DC
:104D3C0002030405060708090A0B0C0D0E0F1010D0
:104D4C00010200000000000000000000010203044A
:104D5C00060708090000000001020304000002011C
:104D6C0004050300313A256920323A256920333A8B
:104D7C00256920343A256920353A256920363A25AB
:104D8C006920373A256920383A25690D0A00000058
:104D9C00232D302B2000686C4C0065666745464718
:104DAC00003031323334353637383941424344459B
:104DBC00460030313233343536373839616263640A
:044DCC006566000018
:044DD0000D020008C8
:044DD400E9010008E9
:104DD80000A24A046400000000002042D00700003E
:104DE800D0070000D0070000D0070000D00700005F
:104DF800D00700002800002000000000000000008C
:104E0800000000000000000000000000000000009A
:104E1800000000000000000000000000000000008A
:104E2800000000000000000000000000000000007A
:104E3800000000000000000000000000000000006A
:104E4800000000000000000000000000000000005A
:084E5800000000000000000052
:04000005080044416A
:00000001FF
